:100000000C945C000C9484000C9484000C94840088
:100010000C9484000C9484000C9484000C94840050
:100020000C9484000C9484000C9484000C94840040
:100030000C9484000C9484000C9484000C94840030
:100040000C9428020C9484000C94F2070C94840005
:100050000C9484000C9484000C9484000C94840010
:100060000C9484000C94840000000007000201003E
:100070000003040600000000000000000102040864
:100080001020408001020408102001020408102002
:10009000040404040404040402020202020203032E
:1000A000030303030000232629000025282B00005A
:1000B00024272A0023021E0411241FBECFEFD4E000
:1000C000DEBFCDBF12E0A0E0B1E0E8E4F5E102C0A0
:1000D00005900D92A032B107D9F712E0A0E2B2E08C
:1000E00001C01D92AC3BB107E1F710E0C8EBD0E0D6
:1000F00004C02297FE010E949F0AC43BD107C9F7A2
:100100000E9418020C94A30A0C94000040E855E2E7
:1001100060E070E084E392E00E940B0461E0809173
:1001200004010E94530366E071E084E392E00E94C0
:10013000F10561E271E084E392E00E94F10566E07E
:1001400071E084E392E00E94F1056BE371E084E3E7
:1001500092E00E94F1056CE371E084E392E00E947A
:10016000F10568E571E084E392E00E94F1056BE639
:1001700071E084E392E00E94F10564E871E084E3B9
:1001800092E00E94F1056EE971E084E392E00E9442
:10019000F1056AEB71E084E392E00E94F1056BE304
:1001A00071E084E392E00E94F10566E071E084E38F
:1001B00092E00E94F10569E070E084E292E00E9422
:1001C000CC0608950F931F9384E392E00E941004DD
:1001D000882309F4A6C084E392E00E9414048335C6
:1001E000910591F18435910574F48732910509F4F4
:1001F0006AC0883291051CF4809799F088C0CB972B
:1002000009F46AC084C08D35910559F18E35910588
:1002100024F48B359105E1F17AC083379105A1F083
:1002200076C065ED71E084E392E00E94F105809173
:100230000001909101018230910561F0029708F070
:100240006CC082E090E008C065EE71E084E392E06B
:100250000E94F10581E090E09093010180930001FC
:100260005CC080912002909121028B3591052CF485
:10027000019690932102809320026DEE71E084E359
:1002800092E00E94320460912002709121023AC0F3
:100290006DEE71E084E392E00E94320460912002EE
:1002A0007091210284E392E00E940906809120026D
:1002B000909121028230910584F10197909321025F
:1002C000809320022AC08091020190910301853B16
:1002D000910574F4019608C0809102019091030188
:1002E000823091052CF001979093030180930201D5
:1002F00068EF71E084E392E00E94320460910201B1
:100300007091030184E392E00E94090606C060E058
:1003100072E084E392E00E94F10584E392E00E949F
:10032000170480910001909101018130910509F439
:1003300074C0823091051CF4892B21F076C002979D
:1003400089F073C001E010E01093230200932202B1
:10035000B80184E292E00E94F60610930101009336
:10036000000163C0109223021092220280910201C8
:1003700090910301181619062CF580912202909194
:1003800023022091200230912102820F931FBC0191
:1003900084E292E00E94F60663E070E080E090E084
:1003A0000E94DF0280912202909123020196909395
:1003B00023028093220220910201309103018217CF
:1003C0009307DCF280910201909103019093230244
:1003D0008093220297FD29C08091220290912302EE
:1003E0002091200230912102820F931FBC0184E2F0
:1003F00092E00E94F60663E070E080E090E00E94E8
:10040000DF028091220290912302019790932302B0
:1004100080932202992304F708C060912002709112
:10042000210284E292E00E94F6061F910F91089546
:10043000CFEFD4E0DEBFCDBF0E9411030E94860043
:100440000E94E200FDCF84E292E00E9476060895C9
:100450001F920F920FB60F9211242F938F939F9399
:10046000AF93BF938091300290913102A0913202FC
:10047000B09133020196A11DB11D8093300290937B
:100480003102A0933202B093330280912C029091FA
:100490002D02A0912E02B0912F028050904CAF4FB0
:1004A000BF4F80932C0290932D02A0932E02B09305
:1004B0002F0280912C0290912D02A0912E02B091DA
:1004C0002F0281589E43A040B040A0F180912C02A1
:1004D00090912D02A0912E02B0912F0280589E4340
:1004E000A040B04080932C0290932D02A0932E0246
:1004F000B0932F028091280290912902A0912A02A4
:10050000B0912B020196A11DB11D809328029093FA
:100510002902A0932A02B0932B0280912C02909181
:100520002D02A0912E02B0912F0281589E43A0402F
:10053000B04060F6BF91AF919F918F912F910F9036
:100540000FBE0F901F9018952FB7F8948091280236
:1005500090912902A0912A02B0912B022FBFBC01D9
:10056000CD0108956FB7F89486B5282F3327442717
:100570005527A89B09C0211531054105510521F4D6
:1005800020E031E040E050E0809130029091310273
:10059000A0913202B09133026FBFBA2FA92F982FCA
:1005A0008827820F931FA41FB51F22E0880F991F71
:1005B000AA1FBB1F2A95D1F7BC01CD010895AF92A8
:1005C000BF92CF92DF92EF92FF920F931F935B0146
:1005D0006C010E94A4027B018C010E94A402DC0138
:1005E000CB018E199F09A00BB10BA816B906CA063C
:1005F000DB0698F71F910F91FF90EF90DF90CF905F
:10060000BF90AF900895FC01319751F0EE0FFF1F9E
:10061000EE0FFF1F32978FB7F8943197F1F78FBF26
:100620000895789484B5826084BD84B5816084BD6A
:1006300085B5826085BD85B5816085BD80916E0080
:10064000816080936E008091810082608093810040
:100650008091810081608093810080918000816021
:10066000809380008091B10084608093B10080917C
:10067000B00081608093B00080917A0084608093A4
:100680007A0080917A00826080937A0080917A006B
:10069000816080937A0080917A00806880937A00EC
:1006A0001092C1000895282F3327C90184589F4F05
:1006B000FC01949120573F4FF9018491882389F0E0
:1006C000E82FFF27E255FF4F8491E82FFF2766238D
:1006D00029F4909580818923808308958081892BD6
:1006E00080830895482F5527CA0188599F4FFC01E0
:1006F0002491CA0184589F4FFC01949140575F4F49
:10070000FA0134913323C9F1222331F1233021F44A
:10071000809180008F7705C0243031F48091800073
:100720008F7D8093800018C0213019F484B58F77B5
:1007300004C0223021F484B58F7D84BD0DC02630E5
:1007400021F48091B0008F7705C0273029F4809183
:10075000B0008F7D8093B000E32FFF27E755FF4F58
:100760008491E82FFF27662329F4909580818923BF
:10077000808308958081892B80830895482F552791
:10078000CA0188599F4FFC012491CA0184589F4F88
:10079000FC01949140575F4FFA013491332319F4CF
:1007A00080E090E00895222331F1233021F48091FC
:1007B00080008F7705C0243031F4809180008F7DD8
:1007C0008093800018C0213019F484B58F7704C05D
:1007D000223021F484B58F7D84BD0DC0263021F4F4
:1007E0008091B0008F7705C0273029F48091B00048
:1007F0008F7D8093B000E32FFF27EC55FF4F84914E
:10080000E82FFF278081892319F081E090E0089587
:1008100080E090E00895CB01BA010E94710708952D
:100820000E94AE07992708950E94C50708950E9467
:10083000E9070895862F0E94A60708958CE192E0AB
:1008400090933502809334020895DC01ED91FC9180
:1008500011970190F081E02DCD01099508950E9436
:10086000250408950F931F93CF93DF938C01EB0121
:100870008881882341F08991682FC8010E942F0444
:1008800088818823C1F7DF91CF911F910F9108953F
:100890002F923F924F925F926F927F928F929F9290
:1008A000AF92BF92CF92DF92EF92FF920F931F937E
:1008B000CF93DF93CDB7DEB7A0970FB6F894DEBF26
:1008C0000FBECDBF1C016A017B018824992454010D
:1008D000411551056105710521F460E30E942F0463
:1008E00042C0422E552466247724840181E090E0A2
:1008F0008C0F9D1F080F191FC701B601A30192019C
:100900000E94600ADC01CB01F80180830894811CFD
:10091000911CA11CB11CC701B601A30192010E9448
:10092000600A69017A012115310541055105E9F691
:1009300081149104A104B104B1F0FE01E80DF91D88
:1009400060816A3010F4605D01C0695CC1010E9481
:100950002F04089481089108A108B108811491041A
:10096000A104B10451F7A0960FB6F894DEBF0FBEF4
:10097000CDBFDF91CF911F910F91FF90EF90DF904E
:10098000CF90BF90AF909F908F907F906F905F902F
:100990004F903F902F9008952AE00E9448040895B8
:1009A0009B0144275527BA01A9010E94CC04089550
:1009B000EF92FF920F931F93CF93DF93EC017A0195
:1009C0008B0177FF0BC06DE20E942F0410950095FC
:1009D000F094E094E11CF11C011D111D2AE0B80106
:1009E000A701CE010E944804DF91CF911F910F9182
:1009F000FF90EF9008959B01442737FD4095542FB9
:100A0000BA01A9010E94D80408952115310521F4E5
:100A1000642F0E942F0408952A30310519F40E9492
:100A2000D80408950E94480408956F927F928F928F
:100A30009F92AF92BF92CF92DF92EF92FF920F936D
:100A40001F93CF93DF933C015A016B01922E20E05C
:100A500030E040E050E0C601B5010E948F088823D5
:100A600044F46DE2C3010E942F04D7FAD094D7F862
:100A7000D0940F2EF0E0EF2EF0E0FF2EF0E00F2FDD
:100A8000FFE31F2FF02D8824C92DDD27209781F04B
:100A900020E030E040E251E4C801B7010E94930831
:100AA0007B018C018394882D99278C179D0780F3F7
:100AB000A8019701C601B5010E942B085B016C01DA
:100AC0000E9400097B018C0197FD03C00E942E0942
:100AD00018C0DC01CB0181709070A070B070A801CB
:100AE00097015695479537952795822B932BA42BE5
:100AF000B52BBC01CD010E942E099B01AC010E94C7
:100B00002B089B01AC01C601B5010E942A085B01BC
:100B10006C01B801A701C3010E94CC04992029F0FF
:100B20006EE172E0C3010E9432049A948FEF98162E
:100B300061F120E030E040E251E4C601B5010E94DD
:100B4000DE095B016C010E94FB08DC01CB018C011A
:100B5000BC01C3010E94FB04C801AA2797FDA09510
:100B6000BA2FBC01CD010E942E09DC01CB019C01F2
:100B7000AD01C601B5010E942A08DC01CB015C0170
:100B80006D019A948FEF9816A1F6DF91CF911F9186
:100B90000F91FF90EF90DF90CF90BF90AF909F901C
:100BA0008F907F906F90089522E00E941505089520
:100BB0000F931F938C016DE00E942F046AE0C8011F
:100BC0000E942F041F910F9108950F931F938C0182
:100BD000C8010E942F04C8010E94D8051F910F91DF
:100BE00008950F931F938C01C8010E943204C8011D
:100BF0000E94D8051F910F9108950F931F938C01A8
:100C0000C8010E942504C8010E94D8051F910F91B8
:100C100008950F931F938C01C8010E94FB04C80123
:100C20000E94D8051F910F9108950F931F938C0177
:100C3000C8010E94D004C8010E94D8051F910F91DD
:100C400008950F931F938C01C8010E94D804C80116
:100C50000E94D8051F910F9108950F931F938C0147
:100C6000C8010E94CC04C8010E94D8051F910F91B1
:100C700008950F931F938C01C8010E940505C801B8
:100C80000E94D8051F910F9108950F931F938C0117
:100C9000C8010E94D405C8010E94D8051F910F9178
:100CA00008952FB7F89482E0809380008AE18093C2
:100CB000810088EB9BE0909389008093880090935B
:100CC0008B0080938A0080E49CE990938700809356
:100CD000860080916F00887F80936F002FBF0895FA
:100CE0000895FC0110828FEF81830895FC0110822A
:100CF0008FEF81830895CF93DF93EC01FB01CB014C
:100D00000997029718F080E090E043C057FF02C0B7
:100D1000415F5F4F94E0559547959A95E1F74A8377
:100D200037FF02C0215F3F4F84E0359527958A95B4
:100D3000E1F72B83E8838FEF898360E08E2F0E9499
:100D4000720361E088810E945303809137028823F7
:100D500031F480913602882311F40E945106888173
:100D6000893049F481E080933702809180008F7B45
:100D700080688093800088818A3049F481E0809384
:100D80003602809180008F7E80628093800081E0B7
:100D900090E0DF91CF91089520E639E040E252E003
:100DA0000E947B0699270895CF93DF93EC018881F9
:100DB000893059F410923702809180008F738093AC
:100DC000800060E088810E94530388818A3059F452
:100DD00010923602809180008F7C8093800060E0CA
:100DE00088810E945303DF91CF910895EF92FF9283
:100DF0000F931F93CF93DF93EC0177FF02C060E066
:100E000070E0653B710514F064EB70E069832A8142
:100E1000822F9927AA27BB27EE24F82E092F1A2FF5
:100E20008B819927821B9109AA2797FDA095BA2F3C
:100E3000262F332744275527BC01CD010E94410AA4
:100E4000DC01CB01BA2FA92F982F8827BC01CD0137
:100E500024EB30E040E050E00E94820AE20EF31EF4
:100E6000041F151F17FF08C087E090E0A0E0B0E066
:100E7000E80EF91E0A1F1B1FA801970163E0559594
:100E80004795379527956A95D1F78881893021F460
:100E9000309389002093880088818A3021F4309330
:100EA0008B0020938A00DF91CF911F910F91FF90CB
:100EB000EF900895FC01818199270895FC01E0815C
:100EC000E93019F48091370204C0EA3039F4809196
:100ED0003602882319F081E090E0089580E090E0E8
:100EE00008959B01AC0157FF04C06F5F7F4F8F4F88
:100EF0009F4F9595879577956795605C7D4B804F63
:100F00009F4F0E94820ADA01C9010197A109B10924
:100F1000292F3A2F4B2F552747FD5A950196A11D92
:100F2000B11D2093C50081508093C4008091C10001
:100F300080618093C1008091C10088608093C1006E
:100F40008091C10080688093C1000895982F80919E
:100F5000C00085FFFCCF9093C600089540913A02EF
:100F600050913B028091380290913902481B590BF5
:100F7000CA0180589F4F9C0197FF03C09A012150DE
:100F80003F4F2078821B930B089580913A029091F5
:100F90003B0260913802709139028617970719F465
:100FA0008FEF9FEF0895FB01E45CFD4F8081AB0163
:100FB0004F5F5F4F9A0157FF03C09B0120583F4F7F
:100FC0002078421B530B50933902409338029927E3
:100FD0000895809138029091390290933B0280935A
:100FE0003A0208951F920F920FB60F9211242F9379
:100FF0003F934F938F939F93EF93FF934091C6003E
:10100000E0913A02F0913B029F012F5F3F4FC901EF
:1010100037FF03C0CF0180589F4F8078281B390BC2
:1010200080913802909139022817390739F0E45C31
:10103000FD4F408330933B0220933A02FF91EF91A2
:101040009F918F914F913F912F910F900FBE0F90D5
:101050001F9018955058BB27AA270ED075C166D18E
:1010600030F06BD120F031F49F3F11F41EF45BC1DE
:101070000EF4E095E7FB51C1E92F77D180F3BA1761
:10108000620773078407950718F071F49EF58FC106
:101090000EF4E0950B2EBA2FA02D0B01B901900193
:1010A0000C01CA01A0011124FF27591B99F0593FD7
:1010B00050F4503E68F11A16F040A22F232F342F1F
:1010C0004427585FF3CF469537952795A795F0406D
:1010D0005395C9F77EF41F16BA0B620B730B840B82
:1010E000BAF09150A1F0FF0FBB1F661F771F881F3A
:1010F000C2F70EC0BA0F621F731F841F48F4879592
:1011000077956795B795F7959E3F08F0B3CF939580
:10111000880F08F09927EE0F979587950895D9D0F5
:1011200008F481E008950CD00FC107D140F0FED043
:1011300030F021F45F3F19F0F0C0511139C1F3C014
:1011400014D198F39923C9F35523B1F3951B550B8B
:10115000BB27AA2762177307840738F09F5F5F4F8A
:10116000220F331F441FAA1FA9F333D00E2E3AF0CB
:10117000E0E830D091505040E695001CCAF729D0E5
:10118000FE2F27D0660F771F881FBB1F2617370734
:101190004807AB07B0E809F0BB0B802DBF01FF2764
:1011A00093585F4F2AF09E3F510568F0B6C000C1CA
:1011B0005F3FECF3983EDCF3869577956795B7959E
:1011C000F7959F5FC9F7880F911D9695879597F9B9
:1011D0000895E1E0660F771F881FBB1F6217730732
:1011E0008407BA0720F0621B730B840BBA0BEE1F47
:1011F00088F7E095089504D06894B111D9C0089596
:10120000BCD088F09F5790F0B92F9927B751A0F024
:10121000D1F0660F771F881F991F1AF0BA95C9F78A
:1012200012C0B13081F0C3D0B1E00895C0C0672FC3
:10123000782F8827B85F39F0B93FCCF3869577953A
:101240006795B395D9F73EF4909580957095619523
:101250007F4F8F4F9F4F0895E89409C097FB3EF44E
:1012600090958095709561957F4F8F4F9F4F9923F3
:10127000A9F0F92F96E9BB279395F6958795779571
:101280006795B795F111F8CFFAF4BB0F11F460FF31
:101290001BC06F5F7F4F8F4F9F4F16C0882311F089
:1012A00096E911C0772321F09EE8872F762F05C09D
:1012B000662371F096E8862F70E060E02AF09A9538
:1012C000660F771F881FDAF7880F9695879597F92D
:1012D0000895990F0008550FAA0BE0E8FEEF1616C7
:1012E0001706E807F907C0F012161306E407F5071A
:1012F00098F0621B730B840B950B39F40A2661F08E
:10130000232B242B252B21F408950A2609F4A14030
:10131000A6958FEF811D811D089597F99F6780E83D
:1013200070E060E008959FEF80EC089500240A9437
:101330001616170618060906089500240A941216B0
:101340001306140605060895092E0394000C11F4E3
:10135000882352F0BB0F40F4BF2B11F460FF04C090
:101360006F5F7F4F8F4F9F4F089557FD9058440FE9
:10137000551F59F05F3F71F04795880F97FB991FF4
:1013800061F09F3F79F087950895121613061406B1
:10139000551FF2CF4695F1DF08C01616170618063E
:1013A000991FF1CF86957105610508940895E89419
:1013B000BB2766277727CB0197F908950BD0C4CFB9
:1013C000B5DF28F0BADF18F0952309F0A6CFABCF30
:1013D0001124EECFCADFA0F3959FD1F3950F50E013
:1013E000551F629FF001729FBB27F00DB11D639FD7
:1013F000AA27F00DB11DAA1F649F6627B00DA11D7D
:10140000661F829F2227B00DA11D621F739FB00D22
:10141000A11D621F839FA00D611D221F749F332792
:10142000A00D611D231F849F600D211D822F762F2B
:101430006A2F11249F5750408AF0E1F088234AF028
:10144000EE0FFF1FBB1F661F771F881F9150504074
:10145000A9F79E3F510570F060CFAACF5F3FECF334
:10146000983EDCF3869577956795B795F795E79560
:101470009F5FC1F7FE2B880F911D9695879597F971
:101480000895629FD001739FF001829FE00DF11DCE
:10149000649FE00DF11D929FF00D839FF00D749FEE
:1014A000F00D659FF00D9927729FB00DE11DF91F9A
:1014B000639FB00DE11DF91FBD01CF0111240895F7
:1014C000A1E21A2EAA1BBB1BFD010DC0AA1FBB1F48
:1014D000EE1FFF1FA217B307E407F50720F0A21BBA
:1014E000B30BE40BF50B661F771F881F991F1A9427
:1014F00069F760957095809590959B01AC01BD0151
:10150000CF01089597FB092E05260ED057FD04D074
:10151000D7DF0AD0001C38F45095409530952195BE
:101520003F4F4F4F5F4F0895F6F790958095709518
:1015300061957F4F8F4F9F4F0895EE0FFF1F0590CE
:08154000F491E02D0994FFCFA6
:10154800020028000D002D2D2D2D2D2D2D2D2D2D9A
:101558002D2D2D2D2D2D2D2D2D2D2D2D2D2D2D2DB3
:1015680000206950686F6E652072756E6E696E67CF
:101578002073696D756C61746F72000053706163DC
:10158800656261722020202020546F67676C652097
:1015980072756E6E696E67007320202020202020EF
:1015A80020202020205061757365005D20202020B8
:1015B8002020202020202020526F74617465206C28
:1015C800656674005B202020202020202020202019
:1015D80020526F74617465207269676874003B20DB
:1015E80020202020202020202020204465637265B0
:1015F80061736520737765657000202020202020A6
:10160800202020202020496E637265617365207355
:101618007765657000546F67676C652061637469EE
:10162800766974790050617573696E6700526F74DA
:101638006174696F6E3A200053776565703A2000CF
:10164800436F6D6D616E64206E6F74207265636F99
:10165800676E697A65642E00000000001A042E0087
:00000001FF
